{
  "_format": "hh-sol-artifact-1",
  "contractName": "ExpenseManagement",
  "sourceName": "contracts/ExpenseManagement.sol",
  "abi": [
    {
      "anonymous": false,
      "inputs": [
        {
          "indexed": false,
          "internalType": "uint256",
          "name": "id",
          "type": "uint256"
        },
        {
          "indexed": false,
          "internalType": "uint256",
          "name": "amount",
          "type": "uint256"
        },
        {
          "indexed": false,
          "internalType": "address",
          "name": "destinationAddress",
          "type": "address"
        }
      ],
      "name": "ExpenseAccepted",
      "type": "event"
    },
    {
      "anonymous": false,
      "inputs": [
        {
          "indexed": false,
          "internalType": "uint256",
          "name": "id",
          "type": "uint256"
        },
        {
          "indexed": false,
          "internalType": "string",
          "name": "title",
          "type": "string"
        },
        {
          "indexed": false,
          "internalType": "string",
          "name": "description",
          "type": "string"
        },
        {
          "indexed": false,
          "internalType": "string",
          "name": "category",
          "type": "string"
        },
        {
          "indexed": false,
          "internalType": "uint256",
          "name": "amount",
          "type": "uint256"
        },
        {
          "indexed": false,
          "internalType": "address",
          "name": "destinationAddress",
          "type": "address"
        },
        {
          "indexed": false,
          "internalType": "address",
          "name": "createdBy",
          "type": "address"
        }
      ],
      "name": "ExpenseCreated",
      "type": "event"
    },
    {
      "anonymous": false,
      "inputs": [
        {
          "indexed": false,
          "internalType": "uint256",
          "name": "id",
          "type": "uint256"
        }
      ],
      "name": "ExpenseRejected",
      "type": "event"
    },
    {
      "inputs": [
        {
          "internalType": "uint256",
          "name": "_id",
          "type": "uint256"
        }
      ],
      "name": "acceptExpense",
      "outputs": [],
      "stateMutability": "payable",
      "type": "function"
    },
    {
      "inputs": [
        {
          "internalType": "string",
          "name": "_title",
          "type": "string"
        },
        {
          "internalType": "string",
          "name": "_description",
          "type": "string"
        },
        {
          "internalType": "string",
          "name": "_category",
          "type": "string"
        },
        {
          "internalType": "uint256",
          "name": "_amount",
          "type": "uint256"
        },
        {
          "internalType": "address",
          "name": "_destinationAddress",
          "type": "address"
        }
      ],
      "name": "createExpense",
      "outputs": [],
      "stateMutability": "nonpayable",
      "type": "function"
    },
    {
      "inputs": [],
      "name": "expenseCounter",
      "outputs": [
        {
          "internalType": "uint256",
          "name": "",
          "type": "uint256"
        }
      ],
      "stateMutability": "view",
      "type": "function"
    },
    {
      "inputs": [
        {
          "internalType": "uint256",
          "name": "",
          "type": "uint256"
        }
      ],
      "name": "expenses",
      "outputs": [
        {
          "internalType": "uint256",
          "name": "id",
          "type": "uint256"
        },
        {
          "internalType": "string",
          "name": "title",
          "type": "string"
        },
        {
          "internalType": "string",
          "name": "description",
          "type": "string"
        },
        {
          "internalType": "string",
          "name": "category",
          "type": "string"
        },
        {
          "internalType": "uint256",
          "name": "amount",
          "type": "uint256"
        },
        {
          "internalType": "address",
          "name": "destinationAddress",
          "type": "address"
        },
        {
          "internalType": "address",
          "name": "createdBy",
          "type": "address"
        },
        {
          "internalType": "bool",
          "name": "isAccepted",
          "type": "bool"
        },
        {
          "internalType": "bool",
          "name": "isRejected",
          "type": "bool"
        }
      ],
      "stateMutability": "view",
      "type": "function"
    },
    {
      "inputs": [
        {
          "internalType": "address",
          "name": "",
          "type": "address"
        },
        {
          "internalType": "uint256",
          "name": "",
          "type": "uint256"
        }
      ],
      "name": "expensesByCreator",
      "outputs": [
        {
          "internalType": "uint256",
          "name": "",
          "type": "uint256"
        }
      ],
      "stateMutability": "view",
      "type": "function"
    },
    {
      "inputs": [
        {
          "internalType": "uint256",
          "name": "_id",
          "type": "uint256"
        }
      ],
      "name": "getExpense",
      "outputs": [
        {
          "internalType": "uint256",
          "name": "id",
          "type": "uint256"
        },
        {
          "internalType": "string",
          "name": "title",
          "type": "string"
        },
        {
          "internalType": "string",
          "name": "description",
          "type": "string"
        },
        {
          "internalType": "string",
          "name": "category",
          "type": "string"
        },
        {
          "internalType": "uint256",
          "name": "amount",
          "type": "uint256"
        },
        {
          "internalType": "address",
          "name": "destinationAddress",
          "type": "address"
        },
        {
          "internalType": "address",
          "name": "createdBy",
          "type": "address"
        },
        {
          "internalType": "bool",
          "name": "isAccepted",
          "type": "bool"
        },
        {
          "internalType": "bool",
          "name": "isRejected",
          "type": "bool"
        }
      ],
      "stateMutability": "view",
      "type": "function"
    },
    {
      "inputs": [
        {
          "internalType": "address",
          "name": "_creator",
          "type": "address"
        }
      ],
      "name": "getExpensesByCreator",
      "outputs": [
        {
          "internalType": "uint256[]",
          "name": "",
          "type": "uint256[]"
        }
      ],
      "stateMutability": "view",
      "type": "function"
    },
    {
      "inputs": [
        {
          "internalType": "uint256",
          "name": "_id",
          "type": "uint256"
        }
      ],
      "name": "rejectExpense",
      "outputs": [],
      "stateMutability": "nonpayable",
      "type": "function"
    },
    {
      "stateMutability": "payable",
      "type": "receive"
    }
  ],
  "bytecode": "0x608060405234801561001057600080fd5b50611bb5806100206000396000f3fe60806040526004361061007f5760003560e01c8063bee31b8d1161004e578063bee31b8d1461016e578063ddcad2ae14610197578063ea6af613146101c2578063eed034c3146101ff57610086565b8063125ede9d1461008b5780633a2bfc5f146100a7578063735e5db6146100e4578063af4afe0a1461012957610086565b3661008657005b600080fd5b6100a560048036038101906100a09190611146565b610228565b005b3480156100b357600080fd5b506100ce60048036038101906100c991906111d1565b6104fd565b6040516100db9190611220565b60405180910390f35b3480156100f057600080fd5b5061010b60048036038101906101069190611146565b61052e565b604051610120999897969594939291906112fe565b60405180910390f35b34801561013557600080fd5b50610150600480360381019061014b9190611146565b6108b1565b604051610165999897969594939291906112fe565b60405180910390f35b34801561017a57600080fd5b50610195600480360381019061019091906114d5565b610af1565b005b3480156101a357600080fd5b506101ac610e35565b6040516101b99190611220565b60405180910390f35b3480156101ce57600080fd5b506101e960048036038101906101e491906115a4565b610e3b565b6040516101f6919061168f565b60405180910390f35b34801561020b57600080fd5b5061022660048036038101906102219190611146565b610ed2565b005b6000806000838152602001908152602001600020600001541415610281576040517f08c379a0000000000000000000000000000000000000000000000000000000008152600401610278906116fd565b60405180910390fd5b60008082815260200190815260200160002060060160149054906101000a900460ff16156102e4576040517f08c379a00000000000000000000000000000000000000000000000000000000081526004016102db90611769565b60405180910390fd5b60008082815260200190815260200160002060060160159054906101000a900460ff1615610347576040517f08c379a000000000000000000000000000000000000000000000000000000000815260040161033e906117d5565b60405180910390fd5b6000806000838152602001908152602001600020905080600401544710156103a4576040517f08c379a000000000000000000000000000000000000000000000000000000000815260040161039b90611841565b60405180910390fd5b60018160060160146101000a81548160ff02191690831515021790555060008160050160009054906101000a900473ffffffffffffffffffffffffffffffffffffffff1673ffffffffffffffffffffffffffffffffffffffff16826004015460405161040f90611892565b60006040518083038185875af1925050503d806000811461044c576040519150601f19603f3d011682016040523d82523d6000602084013e610451565b606091505b5050905080610495576040517f08c379a000000000000000000000000000000000000000000000000000000000815260040161048c906118f3565b60405180910390fd5b7f33805629aab4690dfb06c2c488a300dd3d101e510e3a4b01279509ecff6576368383600401548460050160009054906101000a900473ffffffffffffffffffffffffffffffffffffffff166040516104f093929190611913565b60405180910390a1505050565b6001602052816000526040600020818154811061051957600080fd5b90600052602060002001600091509150505481565b600060608060606000806000806000806000808c8152602001908152602001600020600001541415610595576040517f08c379a000000000000000000000000000000000000000000000000000000000815260040161058c906116fd565b60405180910390fd5b60008060008c815260200190815260200160002060405180610120016040529081600082015481526020016001820180546105cf90611979565b80601f01602080910402602001604051908101604052809291908181526020018280546105fb90611979565b80156106485780601f1061061d57610100808354040283529160200191610648565b820191906000526020600020905b81548152906001019060200180831161062b57829003601f168201915b5050505050815260200160028201805461066190611979565b80601f016020809104026020016040519081016040528092919081815260200182805461068d90611979565b80156106da5780601f106106af576101008083540402835291602001916106da565b820191906000526020600020905b8154815290600101906020018083116106bd57829003601f168201915b505050505081526020016003820180546106f390611979565b80601f016020809104026020016040519081016040528092919081815260200182805461071f90611979565b801561076c5780601f106107415761010080835404028352916020019161076c565b820191906000526020600020905b81548152906001019060200180831161074f57829003601f168201915b50505050508152602001600482015481526020016005820160009054906101000a900473ffffffffffffffffffffffffffffffffffffffff1673ffffffffffffffffffffffffffffffffffffffff1673ffffffffffffffffffffffffffffffffffffffff1681526020016006820160009054906101000a900473ffffffffffffffffffffffffffffffffffffffff1673ffffffffffffffffffffffffffffffffffffffff1673ffffffffffffffffffffffffffffffffffffffff1681526020016006820160149054906101000a900460ff161515151581526020016006820160159054906101000a900460ff1615151515815250509050806000015181602001518260400151836060015184608001518560a001518660c001518760e00151886101000151995099509950995099509950995099509950509193959799909294969850565b60006020528060005260406000206000915090508060000154908060010180546108da90611979565b80601f016020809104026020016040519081016040528092919081815260200182805461090690611979565b80156109535780601f1061092857610100808354040283529160200191610953565b820191906000526020600020905b81548152906001019060200180831161093657829003601f168201915b50505050509080600201805461096890611979565b80601f016020809104026020016040519081016040528092919081815260200182805461099490611979565b80156109e15780601f106109b6576101008083540402835291602001916109e1565b820191906000526020600020905b8154815290600101906020018083116109c457829003601f168201915b5050505050908060030180546109f690611979565b80601f0160208091040260200160405190810160405280929190818152602001828054610a2290611979565b8015610a6f5780601f10610a4457610100808354040283529160200191610a6f565b820191906000526020600020905b815481529060010190602001808311610a5257829003601f168201915b5050505050908060040154908060050160009054906101000a900473ffffffffffffffffffffffffffffffffffffffff16908060060160009054906101000a900473ffffffffffffffffffffffffffffffffffffffff16908060060160149054906101000a900460ff16908060060160159054906101000a900460ff16905089565b60008211610b34576040517f08c379a0000000000000000000000000000000000000000000000000000000008152600401610b2b906119f7565b60405180910390fd5b600073ffffffffffffffffffffffffffffffffffffffff168173ffffffffffffffffffffffffffffffffffffffff161415610ba4576040517f08c379a0000000000000000000000000000000000000000000000000000000008152600401610b9b90611a63565b60405180910390fd5b60026000815480929190610bb790611ab2565b919050555060405180610120016040528060025481526020018681526020018581526020018481526020018381526020018273ffffffffffffffffffffffffffffffffffffffff1681526020013373ffffffffffffffffffffffffffffffffffffffff168152602001600015158152602001600015158152506000806002548152602001908152602001600020600082015181600001556020820151816001019080519060200190610c6a929190611059565b506040820151816002019080519060200190610c87929190611059565b506060820151816003019080519060200190610ca4929190611059565b506080820151816004015560a08201518160050160006101000a81548173ffffffffffffffffffffffffffffffffffffffff021916908373ffffffffffffffffffffffffffffffffffffffff16021790555060c08201518160060160006101000a81548173ffffffffffffffffffffffffffffffffffffffff021916908373ffffffffffffffffffffffffffffffffffffffff16021790555060e08201518160060160146101000a81548160ff0219169083151502179055506101008201518160060160156101000a81548160ff021916908315150217905550905050600160003373ffffffffffffffffffffffffffffffffffffffff1673ffffffffffffffffffffffffffffffffffffffff16815260200190815260200160002060025490806001815401808255809150506001900390600052602060002001600090919091909150557f06159409ff7f2e0312d732ebf8418d3c61d3034e66201b81d64abbf5594b2569600254868686868633604051610e269796959493929190611afb565b60405180910390a15050505050565b60025481565b6060600160008373ffffffffffffffffffffffffffffffffffffffff1673ffffffffffffffffffffffffffffffffffffffff168152602001908152602001600020805480602002602001604051908101604052809291908181526020018280548015610ec657602002820191906000526020600020905b815481526020019060010190808311610eb2575b50505050509050919050565b6000806000838152602001908152602001600020600001541415610f2b576040517f08c379a0000000000000000000000000000000000000000000000000000000008152600401610f22906116fd565b60405180910390fd5b60008082815260200190815260200160002060060160149054906101000a900460ff1615610f8e576040517f08c379a0000000000000000000000000000000000000000000000000000000008152600401610f8590611769565b60405180910390fd5b60008082815260200190815260200160002060060160159054906101000a900460ff1615610ff1576040517f08c379a0000000000000000000000000000000000000000000000000000000008152600401610fe8906117d5565b60405180910390fd5b600160008083815260200190815260200160002060060160156101000a81548160ff0219169083151502179055507fffc2d9bb9deae86e0702d4bef2263dd973fc5c92d76579707e8602696b63dd6b8160405161104e9190611220565b60405180910390a150565b82805461106590611979565b90600052602060002090601f01602090048101928261108757600085556110ce565b82601f106110a057805160ff19168380011785556110ce565b828001600101855582156110ce579182015b828111156110cd5782518255916020019190600101906110b2565b5b5090506110db91906110df565b5090565b5b808211156110f85760008160009055506001016110e0565b5090565b6000604051905090565b600080fd5b600080fd5b6000819050919050565b61112381611110565b811461112e57600080fd5b50565b6000813590506111408161111a565b92915050565b60006020828403121561115c5761115b611106565b5b600061116a84828501611131565b91505092915050565b600073ffffffffffffffffffffffffffffffffffffffff82169050919050565b600061119e82611173565b9050919050565b6111ae81611193565b81146111b957600080fd5b50565b6000813590506111cb816111a5565b92915050565b600080604083850312156111e8576111e7611106565b5b60006111f6858286016111bc565b925050602061120785828601611131565b9150509250929050565b61121a81611110565b82525050565b60006020820190506112356000830184611211565b92915050565b600081519050919050565b600082825260208201905092915050565b60005b8381101561127557808201518184015260208101905061125a565b83811115611284576000848401525b50505050565b6000601f19601f8301169050919050565b60006112a68261123b565b6112b08185611246565b93506112c0818560208601611257565b6112c98161128a565b840191505092915050565b6112dd81611193565b82525050565b60008115159050919050565b6112f8816112e3565b82525050565b600061012082019050611314600083018c611211565b8181036020830152611326818b61129b565b9050818103604083015261133a818a61129b565b9050818103606083015261134e818961129b565b905061135d6080830188611211565b61136a60a08301876112d4565b61137760c08301866112d4565b61138460e08301856112ef565b6113926101008301846112ef565b9a9950505050505050505050565b600080fd5b600080fd5b7f4e487b7100000000000000000000000000000000000000000000000000000000600052604160045260246000fd5b6113e28261128a565b810181811067ffffffffffffffff82111715611401576114006113aa565b5b80604052505050565b60006114146110fc565b905061142082826113d9565b919050565b600067ffffffffffffffff8211156114405761143f6113aa565b5b6114498261128a565b9050602081019050919050565b82818337600083830152505050565b600061147861147384611425565b61140a565b905082815260208101848484011115611494576114936113a5565b5b61149f848285611456565b509392505050565b600082601f8301126114bc576114bb6113a0565b5b81356114cc848260208601611465565b91505092915050565b600080600080600060a086880312156114f1576114f0611106565b5b600086013567ffffffffffffffff81111561150f5761150e61110b565b5b61151b888289016114a7565b955050602086013567ffffffffffffffff81111561153c5761153b61110b565b5b611548888289016114a7565b945050604086013567ffffffffffffffff8111156115695761156861110b565b5b611575888289016114a7565b935050606061158688828901611131565b9250506080611597888289016111bc565b9150509295509295909350565b6000602082840312156115ba576115b9611106565b5b60006115c8848285016111bc565b91505092915050565b600081519050919050565b600082825260208201905092915050565b6000819050602082019050919050565b61160681611110565b82525050565b600061161883836115fd565b60208301905092915050565b6000602082019050919050565b600061163c826115d1565b61164681856115dc565b9350611651836115ed565b8060005b83811015611682578151611669888261160c565b975061167483611624565b925050600181019050611655565b5085935050505092915050565b600060208201905081810360008301526116a98184611631565b905092915050565b7f457870656e736520646f6573206e6f7420657869737400000000000000000000600082015250565b60006116e7601683611246565b91506116f2826116b1565b602082019050919050565b60006020820190508181036000830152611716816116da565b9050919050565b7f457870656e736520697320616c72656164792061636365707465640000000000600082015250565b6000611753601b83611246565b915061175e8261171d565b602082019050919050565b6000602082019050818103600083015261178281611746565b9050919050565b7f457870656e736520697320616c72656164792072656a65637465640000000000600082015250565b60006117bf601b83611246565b91506117ca82611789565b602082019050919050565b600060208201905081810360008301526117ee816117b2565b9050919050565b7f496e73756666696369656e7420636f6e74726163742062616c616e6365000000600082015250565b600061182b601d83611246565b9150611836826117f5565b602082019050919050565b6000602082019050818103600083015261185a8161181e565b9050919050565b600081905092915050565b50565b600061187c600083611861565b91506118878261186c565b600082019050919050565b600061189d8261186f565b9150819050919050565b7f5472616e73666572206661696c65640000000000000000000000000000000000600082015250565b60006118dd600f83611246565b91506118e8826118a7565b602082019050919050565b6000602082019050818103600083015261190c816118d0565b9050919050565b60006060820190506119286000830186611211565b6119356020830185611211565b61194260408301846112d4565b949350505050565b7f4e487b7100000000000000000000000000000000000000000000000000000000600052602260045260246000fd5b6000600282049050600182168061199157607f821691505b602082108114156119a5576119a461194a565b5b50919050565b7f416d6f756e74206d7573742062652067726561746572207468616e2030000000600082015250565b60006119e1601d83611246565b91506119ec826119ab565b602082019050919050565b60006020820190508181036000830152611a10816119d4565b9050919050565b7f496e76616c69642064657374696e6174696f6e20616464726573730000000000600082015250565b6000611a4d601b83611246565b9150611a5882611a17565b602082019050919050565b60006020820190508181036000830152611a7c81611a40565b9050919050565b7f4e487b7100000000000000000000000000000000000000000000000000000000600052601160045260246000fd5b6000611abd82611110565b91507fffffffffffffffffffffffffffffffffffffffffffffffffffffffffffffffff821415611af057611aef611a83565b5b600182019050919050565b600060e082019050611b10600083018a611211565b8181036020830152611b22818961129b565b90508181036040830152611b36818861129b565b90508181036060830152611b4a818761129b565b9050611b596080830186611211565b611b6660a08301856112d4565b611b7360c08301846112d4565b9897505050505050505056fea26469706673582212201e9962cfd47d94100b47dab1564f1c3fcc223230221b523a15f63a557c05d26564736f6c634300080a0033",
  "linkReferences": {},
  "deployedLinkReferences": {}
}